:03000000020B02EE
:03000B0002127C62
:03004B000207C8E1
:03006300020F4742
:03006B0002127FFF
:10020000E4F54D90C640E01206D4022901022E60AA
:1002100002B56102B96202C56802CA6902CF700202
:10022000D47102D890000003237FA10202C090C6BF
:1002300041E0786AF6A3E008F6A3E008F6A3E00838
:10024000F6A3E008F6A3E07874F6E4F54EE54EC3B5
:1002500078749650187447254EF582E434C6F583B9
:10026000E0FF746F254EF8A607054E80E0786BE638
:100270007003FB802A786BE6B4010B7B007A00796F
:100280006A1204488020786BE6B4020B7B007A0087
:10029000796A120331800F786BE6B403097B007A28
:1002A00000796A12052F754C017FB11206FAD290BF
:1002B000E4F54D806E7FB18007C290E4F54C7FB2CB
:1002C0001206FA805E7547018059E4F547805412A2
:1002D0000FFC804FC201804B90C641E0F546E4F52B
:1002E0004EE54EC3954650187442254EF582E434CF
:1002F000C6F583E0FF7421254EF8A607054E80E180
:10030000C290E4FF1211387B007A007921AD4612C9
:100310001268754F14D290AF4F154FEF70F9C2901D
:10032000754205E54DD39400400690C7B7E54DF002
:10033000228B508A5189527FFF120EAE7D01E4FF5D
:10034000120C7BAB50AA51A95290000312062E1436
:100350006007146008240270097F0280027F031284
:1003600011517DFA7C007F0F12111FAB50AA51A9C9
:100370005290000A12062EFF121238AB50E552249A
:1003800005F9E43551FA7F06120F8FAB50E5522480
:1003900005F9E43551FAE4FF120F8F1211B77F1DF2
:1003A0001211E1EF700E7F1C1211E1EF70061211B5
:1003B0008C1211B712119B7F3F1212417F01121153
:1003C00038AB50AA51A95290000212062EFDE4FF4C
:1003D00012125AAB50AA51A952120615FF121261FD
:1003E000AB50AA51A95290000412062E1460251495
:1003F0006034240270437F061211E1EF54F7FD7F51
:1004000006120D537F061211E1EF4420FD7F061204
:100410000D5380257F061211E1EF54DFFD7F061298
:100420000D53E4FF80107F061211E1EF54DFFD7FD2
:1004300006120D537F011210EB7F011210CF7F02C5
:100440007E00120E5F0210268B508A5189527FFF68
:10045000120EAE7D01E4FF120C7BAB50AA51A952E3
:1004600090000312062E14600B14600C2402700D11
:10047000E4FF80067F0280027F031211517DFA7C27
:10048000007F0F12111FAB50AA51A95290000A12FF
:10049000062EFF121238AB50E5522405F9E435510F
:1004A000FA7F06120F8FAB50E5522405F9E435515F
:1004B000FAE4FF120F8F7F01121138AB50AA51A935
:1004C0005290000212062EFDE4FF12125AAB50AAFF
:1004D00051A952120615FF1212611211A91211C56B
:1004E0001211D37F011210CFAB50AA51A952900024
:1004F0000412062E146025146026240270277F063D
:100500001211E1EF4420FD7F06120D537F061211F8
:10051000E1EF54F7FD7F06120D538009E4FF8002DE
:100520007F011210EB7F027E00120E5F0210268BFD
:10053000508A5189527FFF120EAEE4FDFF120C7BF0
:10054000AB50AA51A95290000312062E14600B144E
:10055000600C2402700DE4FF80067F0280027F039E
:100560001211517DFA7C007F0F12111FAB50AA515E
:10057000A95290000A12062EFF121238AB50E55213
:100580002405F9E43551FA7F06120F8FAB50E5527E
:100590002405F9E43551FAE4FF120F8F7F0112119F
:1005A00038AB50AA51A95290000212062EFDE4FF6A
:1005B00012125AAB50AA51A952120615FF1212611B
:1005C0001211A91211C51211D37F011210CFAB5015
:1005D000AA51A95290000412062E14602514602618
:1005E000240270277F061211E1EF4420FD7F0612DE
:1005F0000D537F061211E1EF54F7FD7F06120D53E4
:100600008009E4FF80027F011210EB7F027E00125E
:100610000E5F021026BB010689828A83E022500207
:10062000E722BBFE02E32289828A83E49322BB0194
:100630000CE58229F582E5833AF583E0225006E94C
:100640002582F8E622BBFE06E92582F8E222E58251
:1006500029F582E5833AF583E49322BB010689827A
:100660008A83F0225002F722BBFE01F322EF8DF0C5
:10067000A4A8F0CF8CF0A428CE8DF0A42EFE22BC2E
:10068000000BBE0029EF8DF084FFADF022E4CCF822
:1006900075F008EF2FFFEE33FEEC33FCEE9DEC9887
:1006A0004005FCEE9DFE0FD5F0E9E4CEFD22EDF80D
:1006B000F5F0EE8420D21CFEADF075F008EF2FFFB0
:1006C000ED33FD4007985006D5F0F222C398FD0F98
:1006D000D5F0EA22D083D082F8E4937012740193AB
:1006E000700DA3A393F8740193F5828883E4737467
:1006F00002936860EFA3A3A380DF90C680EFF0AE03
:10070000440544A3EEF0EF244F605E14700302072B
:10071000B21470030207B924F370030207BB241F4D
:1007200060030207C790C6827406F0A304F07F0638
:100730001211E1EF4420FD7F06120D537F061211C6
:10074000E1EF7F0030E5027F0190C684EFF07F0685
:100750001211E1EF54DFFD7F06120D5390C685E5BF
:100760004CF090C7B77406F022786AE690C682F023
:1007700008E6A3F008E6A3F008E6A3F008E6A3F075
:100780007874E6A3F0E4F54B7874E6FFE54BC39F7D
:100790005018746F254BF8E6FE7488254BF582E4FB
:1007A00034C6F583EEF0054B80DEEF240890C7B722
:1007B000F02290C7B77402F022800690C682E5430B
:1007C000F090C7B77403F022C0E0C0F0C083C082CD
:1007D000C0D075D000C000C001C002C003C004C0BA
:1007E00005C006C007B2801211EEEF24E0601924A4
:1007F000E0601F24E0606824507077D28312126F8B
:10080000754201754102806AD284754202754101C8
:100810008060C28CAF487879760008A6073002174E
:10082000B280AF8A7875760008A607AF8C0876008C
:1008300008A607C202D203758A00758C00754800AD
:10084000D28C1211FAEF7012054312117D8F4A7B80
:10085000007A0079217F08120C0975420380131277
:1008600011FAEF700AFB7A00792112127680F07586
:100870004204D007D006D005D004D003D002D00166
:10088000D000D0D0D082D083D0F0D0E03275092013
:1008900090C7EBE024FE602814603C24FA40030279
:1008A000092B24086003020932750E12750F82901D
:1008B000C7EEE0C394125004E0FF806A7F128066A6
:1008C000750E12750F9490C7EEE0C394205004E0AB
:1008D000FF80027F20804F90C7EAE07017750E13EB
:1008E000750F3490C7EEE0C394045004E0FF80021B
:1008F0007F04803290C7EAE014C39402502DE0B424
:100900000108750E12750FB48006750E12750FDE94
:10091000850F82850E83E493FF90C7EEE0C39F505E
:1009200005E0FEFF80008F0C020E0790C7B4741123
:10093000F02290C7B47402F022750B02E4F508F5BA
:100940000AF51090C7D6E04408F07F327E001210FE
:1009500071E054F7F090C7AE741DF090C7AC74010D
:10096000F090C7A9741FF090C7AD7401F090C7AAAA
:10097000741FF090C7817410F0A37430F0A374500A
:10098000F0A37470F0A37490F090C78874C0F0A3C3
:100990007410F0A37430F0A37450F0A37470F0A33B
:1009A0007490F090C7DE7401F0A3F0E4A3F0A3F01C
:1009B00090C7ACE04402F090C7DEE04402F090C77C
:1009C000ADE04402F090C7DFE04402F090C7C77486
:1009D000FFF02290C7E8E0F50D5460F9706CA3E0D9
:1009E000601524FB601424FD601714602F14604B05
:1009F0002404705402088D020DAD750B03E4F50A52
:100A000022E50B24FC600E04705CE490C700F090BB
:100A1000C7B504F02290C700E50A802490C7EAE039
:100A200014600B047013750B03E4F50A8031750B29
:100A300004430801750A018026802B90C700E51049
:100A4000F090C7B57401F022801CB9201990C7EE50
:100A5000E0600CE50D20E70790C7C574FFF0229019
:100A6000C7B47402F02290C7B47411F02290C7A8E2
:100A7000E0B4101190C7AB7410F0750B02E4F50AE6
:100A8000F510F5082290C7A8E024FC602524FC603E
:100A90002624FC603224F4603524FC603A24FC6097
:100AA0004624FC604D2424705890C7AB7401F002BA
:100AB00009D390C7AB802C90C7AB7404F0E4F50E5B
:100AC000F50FF50CF5092290C7AB7408F02290C71A
:100AD000A97401F0020E0790C7AA7401F0E4F50CA6
:100AE00090C7B47402F02290C7A97402F090C7B600
:100AF000F02290C7AA7402F075450190C7C774FF31
:100B0000F022787FE4F6D8FD75817A020B49020B5A
:100B10008EE493A3F8E493A34003F68001F208DF88
:100B2000F48029E493A3F85407240CC8C333C454B5
:100B30000F4420C8834004F456800146F6DFE48069
:100B40000B010204081020408090104DE47E0193B8
:100B500060BCA3FF543F30E509541FFEE493A3603B
:100B6000010ECF54C025E060A840B8E493A3FAE496
:100B700093A3F8E493A3C8C582C8CAC583CAF0A3E7
:100B8000C8C582C8CAC583CADFE9DEE780BE1209CC
:100B900039E4F594121206D2BCD2B9D29275E6109D
:100BA00012124A75B5207D647C00E4FF121092D2C7
:100BB000BDE4F580D2AFF545E54C60FCE542B403F9
:100BC00012AF4A300307120CEBC2038003120FC7A7
:100BD000E4F542E54160E1786BE66003B403089018
:100BE000C6827402F0800EE5417F00B401027F01ED
:100BF00090C682EFF0E4F5427FB31206FA7F01124D
:100C00001138D290E4F54180AF8F5C8B5D8A5E89AC
:100C10005FE55C14600C24FB600824FE601424086B
:100C2000702B12121A8F608F61C291E55C240AFF4B
:100C300080161212248F5CEFC39407501012117D9E
:100C40008F608F61C2917F611212108005E4F5619F
:100C5000F560AF601560EF6019E4FF121210AB5D34
:100C6000055FE55FAA5E7002055E14F9EF12065B90
:100C700080E0D291E55CFEE561FF228F538D54E563
:100C80005324FA50062407604B805F7F021211E163
:100C9000AE537401A806088002C333D8FC4FFD7F11
:100CA00002120D53E55460157F011211E1AE537429
:100CB00001A806088002C333D8FC4F80147F0112BC
:100CC00011E1AE537401A806088002C333D8FCF4C6
:100CD0005FFD80117D3F7F02120D53E55460047D5E
:100CE0003F8002E4FD7F01120D5322E547606090D2
:100CF000C68074C1F0AE440544A3EEF0E4FEEEC33A
:100D00009F501574212EF8E6FD74822EF582E4348E
:100D1000C6F583EDF00E80E6787AE6FE74822FF554
:100D200082E434C6F583EEF07878E6FE74832FF51E
:100D300082E434C6F583EEF07876E6FE74842FF50F
:100D400082E434C6F583EEF0EF240590C7B7F022B5
:100D5000FDE4FF8F658D66C291E565C39420500761
:100D6000E5652420FF802EE565B4E103D38001C34F
:100D7000402FE565B4E203D38001C34024E565B4A8
:100D8000E303D38001C34019E565B4FF03D38001B9
:100D9000C3400EAF651212108F67AF66121210803B
:100DA00007AF651212108F67D291AF6722E490C728
:100DB00001F090C700F0E50BB4030890C7ECE070B9
:100DC000028036E50B64047037E50D247F6014144F
:100DD00060132402702AE50830E10690C70074020F
:100DE000F08016801490C7ECE030E70590C7B6801D
:100DF0000390C7C6E090C700F090C7B57402F02218
:100E000090C7B47411F022E50C700B90C7B5F09048
:100E1000C7B47402F022E50CC39509AF095002AFC4
:100E20000CAD0FAC0EE4FEEEC39F501E0DEDAA04F8
:100E300070010C14F5828A83E493FB74002EF58212
:100E4000E434C7F583EBF00E80DD90C7B5EFF025F5
:100E50000FF50FE4350EF50EC3E50C9FF50C22AB34
:100E600007AA067C007D2812067F8D828C837C0574
:100E70007D35AF82AE8312066DC3E49FF566E49EB6
:100E8000F565C3EB9582FBEA9583FAFEAF037C0020
:100E90007D2812067FEF04F511E56645657008753B
:100EA000652F7566B81511AF66AE650211698F536F
:100EB000E55324FA500624076032803E7F02121167
:100EC000E1AE537401A806088002C333D8FCF45F76
:100ED000FD7F02120D537F011211E1AE537401A880
:100EE00006088002C333D8FCF45F8008E4FD7F026B
:100EF000120D53E4FD7F01120D53228F578B588A38
:100F000059895AE55714600B24FB600714601124BB
:100F100007701312121A8F5BC291E557242A801EA4
:100F2000C2917FA08019AF5B155BEF6017AB5805CE
:100F30005AE55AAA597002055914F9120615FF12FA
:100F4000121080E2D29122C0E0C0F0C083C082C003
:100F5000D075D000C000C001C002C003C004C005ED
:100F6000C006C007B281120A6DE545B4010612023F
:100F700000754500D007D006D005D004D003D002BC
:100F8000D001D000D0D0D082D083D0F0D0E0328F4A
:100F9000538B548A558956E55314600A24FB501428
:100FA000600424067020AB54AA55A956E4F55BAF43
:100FB00053020EFBE553240AFFAB54AA55A956125F
:100FC0000615FD120D5322E547603090C68074B0BF
:100FD000F0AE440544A3EEF0E4FEEEC39F5015745A
:100FE000212EF8E6FD74822EF582E434C6F583EDF9
:100FF000F00E80E6EF240290C7B7F022C2AFE4FF04
:101000001211057D02E4FFFE1210B17D787F017E92
:10101000001210B1E4FD7F02FE1210B1E4F5AB75D1
:10102000AC0175AD0822E511D39400401BA28F508E
:10103000028001C350F71511E511D3940040E77FFA
:10104000B87E2F12116980DEC28EC2AB220145002C
:10105000014400014C000147010142000149000127
:101060004300014800014100C180C102C103C181A8
:1010700000E4FDFCC3ED9FEC9E5016E4FBFA000B70
:10108000BB00010ABA05F7BB7BF40DBD00010C8063
:10109000E3228D828C83AE07E4FDFC7F0B12122EBF
:1010A000C2C5EEFD7F0912122EAD82AC830F021273
:1010B0002EA2AF92D5C2AF75FAAA75FA55D2FD8F9E
:1010C000828E83EDF020FCFDC2FDA2D592AF22BF3F
:1010D000010AE4FF1211E1EF44028008E4FF12115B
:1010E000E1EF54FDFDE4FF120D5322EF7F0670087F
:1010F0001211E1EF54F780061211E1EF4408FD7F71
:1011000006120D5322A2AF92D5C2AF75FAAA75FA94
:1011100055D2FD8FFA20FCFDC2FDA2D592AF22ABC5
:1011200007AE04AF057C007DFA12067FEF14C454AD
:10113000F04BFD7F04020D53BF010AE4FF1211E1E1
:10114000EF44018008E4FF1211E1EF54FE120D504C
:10115000228F53E4FF1211E1EF54F3FFE55325E032
:1011600025E04FFDE4FF020D53EF4E600F43891061
:101170008F8B8E8DD28EC2ABC28FD2AF22C2917FA7
:1011800060121210E4FF121210D29122C2917F500D
:101190001212107F73121210D291227F1D1211E1D0
:1011A000EF4404FD7F1D020D537F1D1211E1EF542A
:1011B000FBFD7F1D020D537F1D1211E1EF4402FD67
:1011C0007F1D020D537F1D1211E1EF54FDFD7F1DA8
:1011D000020D537F1D1211E1EF54FEFD7F1D020D24
:1011E00053C291121210E4FF121210D291227D709C
:1011F0007F07120D53EF5470FF22121224BF070312
:101200007F01227F00227F0A7E00120E5F021026DD
:101210008FE5C2C030C0FDAFE5227F031211E1EFC0
:101220002402FF22121252EF540EC313FF22AB0707
:101230008CABEDF5AC8BAD22EF24FEFD7F03020DF0
:1012400053EF543FFD7F1C020D53758901D2A9D283
:101250008C22E4FD7FFF120D5322EF2411FF020DBB
:1012600053AD077F05020D538D5B7F07020EFBE434
:10127000FD7FE1020D537F08120C0922054832D28E
:10128000023212010002FFFFFF201519FFDA0100F0
:101290000102000109022000010102E032090400FC
:1012A0000002FF00FF000705810240000207050160
:1012B000024000022A034E006F00720064006900C1
:1012C00063002000530065006D00690063006F003B
:1012D0006E0064007500630074006F0072005603B6
:1012E0004E006F007200640069006300200053002C
:1012F00065006D00690063006F006E00640075009A
:10130000630074006F00720020006E0052004600FF
:10131000320034004C0055003100200053004E00D4
:1013200049004600460045005200200044004500A8
:081330004D004F000403090405
:00000001FF
